{
  "contractName": "Lottery",
  "abi": [
    {
      "constant": false,
      "inputs": [],
      "name": "lotteryPicker",
      "outputs": [
        {
          "name": "",
          "type": "uint64"
        }
      ],
      "payable": false,
      "stateMutability": "nonpayable",
      "type": "function"
    },
    {
      "constant": false,
      "inputs": [],
      "name": "sendReward",
      "outputs": [
        {
          "name": "",
          "type": "address"
        }
      ],
      "payable": false,
      "stateMutability": "nonpayable",
      "type": "function"
    },
    {
      "constant": true,
      "inputs": [],
      "name": "ticketPrice",
      "outputs": [
        {
          "name": "",
          "type": "uint64"
        }
      ],
      "payable": false,
      "stateMutability": "view",
      "type": "function"
    },
    {
      "constant": false,
      "inputs": [
        {
          "name": "_ticket",
          "type": "uint16"
        }
      ],
      "name": "buyTicket",
      "outputs": [
        {
          "name": "",
          "type": "bool"
        }
      ],
      "payable": true,
      "stateMutability": "payable",
      "type": "function"
    },
    {
      "constant": true,
      "inputs": [],
      "name": "getTicketsPurchased",
      "outputs": [
        {
          "name": "",
          "type": "address[26]"
        }
      ],
      "payable": false,
      "stateMutability": "view",
      "type": "function"
    },
    {
      "constant": true,
      "inputs": [
        {
          "name": "",
          "type": "uint256"
        }
      ],
      "name": "ticketMapping",
      "outputs": [
        {
          "name": "",
          "type": "address"
        }
      ],
      "payable": false,
      "stateMutability": "view",
      "type": "function"
    },
    {
      "constant": true,
      "inputs": [],
      "name": "ticketsBought",
      "outputs": [
        {
          "name": "",
          "type": "uint256"
        }
      ],
      "payable": false,
      "stateMutability": "view",
      "type": "function"
    },
    {
      "constant": true,
      "inputs": [],
      "name": "ticketMax",
      "outputs": [
        {
          "name": "",
          "type": "uint64"
        }
      ],
      "payable": false,
      "stateMutability": "view",
      "type": "function"
    },
    {
      "inputs": [],
      "payable": false,
      "stateMutability": "nonpayable",
      "type": "constructor"
    },
    {
      "payable": true,
      "stateMutability": "payable",
      "type": "fallback"
    },
    {
      "anonymous": false,
      "inputs": [
        {
          "indexed": true,
          "name": "_purchaser",
          "type": "address"
        },
        {
          "indexed": false,
          "name": "_ticketID",
          "type": "uint256"
        }
      ],
      "name": "LotteryTicketPurchased",
      "type": "event"
    },
    {
      "anonymous": false,
      "inputs": [
        {
          "indexed": true,
          "name": "_winner",
          "type": "address"
        },
        {
          "indexed": false,
          "name": "_ticketID",
          "type": "uint64"
        },
        {
          "indexed": false,
          "name": "_amount",
          "type": "uint256"
        }
      ],
      "name": "LotteryAmountPaid",
      "type": "event"
    }
  ],
  "bytecode": "0x60606040526611c37937e080006000806101000a81548167ffffffffffffffff021916908367ffffffffffffffff1602179055506019600060086101000a81548167ffffffffffffffff021916908367ffffffffffffffff1602179055506000601b55341561006d57600080fd5b6109318061007c6000396000f30060606040526004361061008e576000357c0100000000000000000000000000000000000000000000000000000000900463ffffffff16806304bccf7a146100935780631149a81a146100d05780631209b1f6146101255780634eefee34146101625780637cdcc30e146101965780637f702e80146101e7578063af4a047a1461024a578063e3075e4e14610273575b600080fd5b341561009e57600080fd5b6100a66102b0565b604051808267ffffffffffffffff1667ffffffffffffffff16815260200191505060405180910390f35b34156100db57600080fd5b6100e3610367565b604051808273ffffffffffffffffffffffffffffffffffffffff1673ffffffffffffffffffffffffffffffffffffffff16815260200191505060405180910390f35b341561013057600080fd5b610138610517565b604051808267ffffffffffffffff1667ffffffffffffffff16815260200191505060405180910390f35b61017c600480803561ffff16906020019091905050610530565b604051808215151515815260200191505060405180910390f35b34156101a157600080fd5b6101a961073c565b6040518082601a60200280838360005b838110156101d45780820151818401526020810190506101b9565b5050505090500191505060405180910390f35b34156101f257600080fd5b61020860048080359060200190919050506107bd565b604051808273ffffffffffffffffffffffffffffffffffffffff1673ffffffffffffffffffffffffffffffffffffffff16815260200191505060405180910390f35b341561025557600080fd5b61025d6107f2565b6040518082815260200191505060405180910390f35b341561027e57600080fd5b6102866107f8565b604051808267ffffffffffffffff1667ffffffffffffffff16815260200191505060405180910390f35b60008060089054906101000a900467ffffffffffffffff1667ffffffffffffffff16601b54101515156102e257600080fd5b600060089054906101000a900467ffffffffffffffff1667ffffffffffffffff1660024243600060405160200152604051808381526020018281526020019250505060206040518083038160008661646e5a03f1151561034157600080fd5b5050604051805190506001900467ffffffffffffffff1681151561036157fe5b06905090565b600080600080600060089054906101000a900467ffffffffffffffff1667ffffffffffffffff16601b541015151561039e57600080fd5b6103a66102b0565b925060018367ffffffffffffffff16601a811015156103c157fe5b0160009054906101000a900473ffffffffffffffffffffffffffffffffffffffff169150600073ffffffffffffffffffffffffffffffffffffffff168273ffffffffffffffffffffffffffffffffffffffff161415151561042157600080fd5b6000809054906101000a900467ffffffffffffffff16600060089054906101000a900467ffffffffffffffff160267ffffffffffffffff169050610463610812565b508173ffffffffffffffffffffffffffffffffffffffff166108fc829081150290604051600060405180830381858888f1935050505015156104a457600080fd5b8173ffffffffffffffffffffffffffffffffffffffff167f88e10e2c5fc124e16534a2656bbb0d35e634b6b45da693604ba908af778b15c28483604051808367ffffffffffffffff1667ffffffffffffffff1681526020018281526020019250505060405180910390a281935050505090565b6000809054906101000a900467ffffffffffffffff1681565b6000806000809054906101000a900467ffffffffffffffff1667ffffffffffffffff163414151561056057600080fd5b60008361ffff1611801561059a57506001600060089054906101000a900467ffffffffffffffff160167ffffffffffffffff168361ffff16105b15156105a557600080fd5b600073ffffffffffffffffffffffffffffffffffffffff1660018461ffff16601a811015156105d057fe5b0160009054906101000a900473ffffffffffffffffffffffffffffffffffffffff1673ffffffffffffffffffffffffffffffffffffffff1614151561061457600080fd5b600060089054906101000a900467ffffffffffffffff1667ffffffffffffffff16601b5410151561064457600080fd5b3390506001601b600082825401925050819055508060018461ffff16601a8110151561066c57fe5b0160006101000a81548173ffffffffffffffffffffffffffffffffffffffff021916908373ffffffffffffffffffffffffffffffffffffffff1602179055508073ffffffffffffffffffffffffffffffffffffffff167f5436f9c7563d4b5be022d399b41f15519419cafca0f81c49d0cfbe78b925cbff84604051808261ffff16815260200191505060405180910390a2600060089054906101000a900467ffffffffffffffff1667ffffffffffffffff16601b5410151561073257610730610367565b505b6001915050919050565b6107446108c6565b6001601a806020026040519081016040528092919082601a80156107b3576020028201915b8160009054906101000a900473ffffffffffffffffffffffffffffffffffffffff1673ffffffffffffffffffffffffffffffffffffffff1681526020019060010190808311610769575b5050505050905090565b600181601a811015156107cc57fe5b016000915054906101000a900473ffffffffffffffffffffffffffffffffffffffff1681565b601b5481565b600060089054906101000a900467ffffffffffffffff1681565b600080600060089054906101000a900467ffffffffffffffff1667ffffffffffffffff16601b541015151561084657600080fd5b6000601b81905550600090505b6001600060089054906101000a900467ffffffffffffffff160167ffffffffffffffff168110156108be57600181601a8110151561088d57fe5b0160006101000a81549073ffffffffffffffffffffffffffffffffffffffff02191690558080600101915050610853565b600191505090565b61034060405190810160405280601a905b600073ffffffffffffffffffffffffffffffffffffffff168152602001906001900390816108d757905050905600a165627a7a723058203f6953b10c8fa3bf94ebb5b43f098afe2cea420a48d18a14557d67c9fb31e4ef0029",
  "source": "pragma solidity ^0.4.17;\r\n\r\n/**\r\n * @title Ethereum-Lottery\r\n * @dev Simple lottery smart contract to run on the Ethereum\r\n * chain. Designed to (hopefully) work well with a web3 front-end.\r\n * Source of randomness comes from ethereum block hashes.\r\n *\r\n */\r\n\r\ncontract Lottery {\r\n\r\n    event LotteryTicketPurchased(address indexed _purchaser, uint256 _ticketID);\r\n    event LotteryAmountPaid(address indexed _winner, uint64 _ticketID, uint256 _amount);\r\n\r\n    // variables that I may want to change in the future\r\n    uint64 public ticketPrice = 5 finney;\r\n    uint64 public ticketMax = 25;\r\n\r\n    // number of tickets is set to a hard 5, I hope I don't regret this\r\n    // inb4 price of ethereum goes up to 10000 and funds are locked\r\n    address[26] public ticketMapping;\r\n    uint256 public ticketsBought = 0;\r\n\r\n    // greater than to prevent locked funds\r\n    modifier allTicketsSold() {\r\n      require(ticketsBought>=ticketMax);\r\n      _;\r\n    }\r\n\r\n    function Lottery() public {\r\n      // help i do not know if an empty constructor works\r\n    }\r\n\r\n    function() payable public {\r\n      // for now, have ticket purchasing only through functions\r\n      // for sanity purposes\r\n      revert();\r\n    }\r\n\r\n    function buyTicket(uint16 _ticket) payable public returns (bool) {\r\n      // I'd prefer all tickets to just be 0.01 ether\r\n      require(msg.value == ticketPrice);\r\n      require(_ticket > 0 && _ticket < ticketMax+1);\r\n      require(ticketMapping[_ticket]==address(0));\r\n      require(ticketsBought < ticketMax);\r\n\r\n      address purchaser = msg.sender;\r\n      ticketsBought += 1;\r\n      ticketMapping[_ticket] = purchaser;\r\n      LotteryTicketPurchased(purchaser, _ticket);\r\n\r\n      // placing \"burden\" of sendReward() on last ticket buyer\r\n      // is okay, because the refund from destroying the arrays\r\n      // makes it cost the same as buying a regular ticket\r\n      if(ticketsBought>=ticketMax) {\r\n        sendReward();\r\n      }\r\n\r\n      return true;\r\n    }\r\n\r\n    // if a bad winner is chosen the first time, it's possible to just run\r\n    // sendReward() again. But can this cause an attack?\r\n    function sendReward() public allTicketsSold returns (address) {\r\n      uint64 winningNumber = lotteryPicker();\r\n      address winner = ticketMapping[winningNumber];\r\n\r\n      // prevent locked funds by sending to bad address\r\n      require(winner != address(0));\r\n      uint256 totalAmount = ticketMax*ticketPrice;\r\n      reset();\r\n      winner.transfer(totalAmount);\r\n      LotteryAmountPaid(winner, winningNumber, totalAmount);\r\n      return winner;\r\n    }\r\n\r\n    // @return a random number based off of current block information\r\n    function lotteryPicker() public allTicketsSold returns (uint64) {\r\n      return uint64(sha256(block.timestamp, block.number)) % ticketMax;\r\n    }\r\n\r\n    // resets everything to work again\r\n    function reset() private allTicketsSold returns (bool) {\r\n      ticketsBought = 0;\r\n      for(uint x = 0; x < ticketMax+1; x++) {\r\n        delete ticketMapping[x];\r\n      }\r\n      return true;\r\n    }\r\n\r\n    // @dev returns the entire array of tickets purchased\r\n    // while I understand there's a getter function for the\r\n    // array, I'd prefer for there to be a way to get it\r\n    // all at once, since the getter is by element only\r\n    function getTicketsPurchased() public view returns(address[26]) {\r\n      return ticketMapping;\r\n    }\r\n}\r\n",
  "sourcePath": "C:\\Users\\Nagaganesh Jaladanki\\OneDrive\\Documents\\Coding\\Ethereum-Lottery\\contracts\\Lottery.sol",
  "compiler": {
    "name": "solc",
    "version": "0.4.18+commit.9cf6e910.Emscripten.clang"
  },
  "schemaVersion": "1.0.1",
  "updatedAt": "2018-01-10T00:25:50.991Z"
}