{
  "contractName": "Lottery",
  "abi": [
    {
      "constant": false,
      "inputs": [],
      "name": "lotteryPicker",
      "outputs": [
        {
          "name": "",
          "type": "uint64"
        }
      ],
      "payable": false,
      "stateMutability": "nonpayable",
      "type": "function"
    },
    {
      "constant": false,
      "inputs": [],
      "name": "sendReward",
      "outputs": [
        {
          "name": "",
          "type": "address"
        }
      ],
      "payable": false,
      "stateMutability": "nonpayable",
      "type": "function"
    },
    {
      "constant": true,
      "inputs": [],
      "name": "ticketPrice",
      "outputs": [
        {
          "name": "",
          "type": "uint64"
        }
      ],
      "payable": false,
      "stateMutability": "view",
      "type": "function"
    },
    {
      "constant": true,
      "inputs": [],
      "name": "getTicketsBought",
      "outputs": [
        {
          "name": "",
          "type": "uint256"
        }
      ],
      "payable": false,
      "stateMutability": "view",
      "type": "function"
    },
    {
      "constant": false,
      "inputs": [
        {
          "name": "_ticket",
          "type": "uint16"
        }
      ],
      "name": "buyTicket",
      "outputs": [
        {
          "name": "",
          "type": "bool"
        }
      ],
      "payable": true,
      "stateMutability": "payable",
      "type": "function"
    },
    {
      "constant": true,
      "inputs": [],
      "name": "getTicketsPurchased",
      "outputs": [
        {
          "name": "",
          "type": "address[6]"
        }
      ],
      "payable": false,
      "stateMutability": "view",
      "type": "function"
    },
    {
      "constant": true,
      "inputs": [
        {
          "name": "",
          "type": "uint256"
        }
      ],
      "name": "ticketMapping",
      "outputs": [
        {
          "name": "",
          "type": "address"
        }
      ],
      "payable": false,
      "stateMutability": "view",
      "type": "function"
    },
    {
      "constant": true,
      "inputs": [],
      "name": "getTicketMax",
      "outputs": [
        {
          "name": "",
          "type": "uint256"
        }
      ],
      "payable": false,
      "stateMutability": "view",
      "type": "function"
    },
    {
      "constant": true,
      "inputs": [],
      "name": "ticketsBought",
      "outputs": [
        {
          "name": "",
          "type": "uint256"
        }
      ],
      "payable": false,
      "stateMutability": "view",
      "type": "function"
    },
    {
      "constant": true,
      "inputs": [],
      "name": "ticketMax",
      "outputs": [
        {
          "name": "",
          "type": "uint64"
        }
      ],
      "payable": false,
      "stateMutability": "view",
      "type": "function"
    },
    {
      "inputs": [],
      "payable": false,
      "stateMutability": "nonpayable",
      "type": "constructor"
    },
    {
      "payable": true,
      "stateMutability": "payable",
      "type": "fallback"
    },
    {
      "anonymous": false,
      "inputs": [
        {
          "indexed": true,
          "name": "_purchaser",
          "type": "address"
        },
        {
          "indexed": false,
          "name": "_ticketID",
          "type": "uint256"
        }
      ],
      "name": "LotteryTicketPurchased",
      "type": "event"
    },
    {
      "anonymous": false,
      "inputs": [
        {
          "indexed": true,
          "name": "_winner",
          "type": "address"
        },
        {
          "indexed": false,
          "name": "_ticketID",
          "type": "uint64"
        },
        {
          "indexed": false,
          "name": "_amount",
          "type": "uint256"
        }
      ],
      "name": "LotteryAmountPaid",
      "type": "event"
    }
  ],
  "bytecode": "0x6060604052662386f26fc100006000806101000a81548167ffffffffffffffff021916908367ffffffffffffffff1602179055506005600060086101000a81548167ffffffffffffffff021916908367ffffffffffffffff1602179055506000600755341561006d57600080fd5b6109c98061007c6000396000f3006060604052600436106100a4576000357c0100000000000000000000000000000000000000000000000000000000900463ffffffff16806304bccf7a146100a95780631149a81a146100e65780631209b1f61461013b57806332a2fae8146101785780634eefee34146101a15780637cdcc30e146101d55780637f702e80146102265780638faa076e14610289578063af4a047a146102b2578063e3075e4e146102db575b600080fd5b34156100b457600080fd5b6100bc610318565b604051808267ffffffffffffffff1667ffffffffffffffff16815260200191505060405180910390f35b34156100f157600080fd5b6100f96103cf565b604051808273ffffffffffffffffffffffffffffffffffffffff1673ffffffffffffffffffffffffffffffffffffffff16815260200191505060405180910390f35b341561014657600080fd5b61014e61057f565b604051808267ffffffffffffffff1667ffffffffffffffff16815260200191505060405180910390f35b341561018357600080fd5b61018b610598565b6040518082815260200191505060405180910390f35b6101bb600480803561ffff169060200190919050506105a2565b604051808215151515815260200191505060405180910390f35b34156101e057600080fd5b6101e86107ae565b6040518082600660200280838360005b838110156102135780820151818401526020810190506101f8565b5050505090500191505060405180910390f35b341561023157600080fd5b610247600480803590602001909190505061082f565b604051808273ffffffffffffffffffffffffffffffffffffffff1673ffffffffffffffffffffffffffffffffffffffff16815260200191505060405180910390f35b341561029457600080fd5b61029c610864565b6040518082815260200191505060405180910390f35b34156102bd57600080fd5b6102c561088b565b6040518082815260200191505060405180910390f35b34156102e657600080fd5b6102ee610891565b604051808267ffffffffffffffff1667ffffffffffffffff16815260200191505060405180910390f35b60008060089054906101000a900467ffffffffffffffff1667ffffffffffffffff166007541015151561034a57600080fd5b600060089054906101000a900467ffffffffffffffff1667ffffffffffffffff1660024243600060405160200152604051808381526020018281526020019250505060206040518083038160008661646e5a03f115156103a957600080fd5b5050604051805190506001900467ffffffffffffffff168115156103c957fe5b06905090565b600080600080600060089054906101000a900467ffffffffffffffff1667ffffffffffffffff166007541015151561040657600080fd5b61040e610318565b925060018367ffffffffffffffff1660068110151561042957fe5b0160009054906101000a900473ffffffffffffffffffffffffffffffffffffffff169150600073ffffffffffffffffffffffffffffffffffffffff168273ffffffffffffffffffffffffffffffffffffffff161415151561048957600080fd5b6000809054906101000a900467ffffffffffffffff16600060089054906101000a900467ffffffffffffffff160267ffffffffffffffff1690506104cb6108ab565b508173ffffffffffffffffffffffffffffffffffffffff166108fc829081150290604051600060405180830381858888f19350505050151561050c57600080fd5b8173ffffffffffffffffffffffffffffffffffffffff167f88e10e2c5fc124e16534a2656bbb0d35e634b6b45da693604ba908af778b15c28483604051808367ffffffffffffffff1667ffffffffffffffff1681526020018281526020019250505060405180910390a281935050505090565b6000809054906101000a900467ffffffffffffffff1681565b6000600754905090565b6000806000809054906101000a900467ffffffffffffffff1667ffffffffffffffff16341415156105d257600080fd5b60008361ffff1611801561060c57506001600060089054906101000a900467ffffffffffffffff160167ffffffffffffffff168361ffff16105b151561061757600080fd5b600073ffffffffffffffffffffffffffffffffffffffff1660018461ffff1660068110151561064257fe5b0160009054906101000a900473ffffffffffffffffffffffffffffffffffffffff1673ffffffffffffffffffffffffffffffffffffffff1614151561068657600080fd5b600060089054906101000a900467ffffffffffffffff1667ffffffffffffffff166007541015156106b657600080fd5b33905060016007600082825401925050819055508060018461ffff166006811015156106de57fe5b0160006101000a81548173ffffffffffffffffffffffffffffffffffffffff021916908373ffffffffffffffffffffffffffffffffffffffff1602179055508073ffffffffffffffffffffffffffffffffffffffff167f5436f9c7563d4b5be022d399b41f15519419cafca0f81c49d0cfbe78b925cbff84604051808261ffff16815260200191505060405180910390a2600060089054906101000a900467ffffffffffffffff1667ffffffffffffffff166007541015156107a4576107a26103cf565b505b6001915050919050565b6107b661095f565b6001600680602002604051908101604052809291908260068015610825576020028201915b8160009054906101000a900473ffffffffffffffffffffffffffffffffffffffff1673ffffffffffffffffffffffffffffffffffffffff16815260200190600101908083116107db575b5050505050905090565b60018160068110151561083e57fe5b016000915054906101000a900473ffffffffffffffffffffffffffffffffffffffff1681565b60008060089054906101000a900467ffffffffffffffff1667ffffffffffffffff16905090565b60075481565b600060089054906101000a900467ffffffffffffffff1681565b600080600060089054906101000a900467ffffffffffffffff1667ffffffffffffffff16600754101515156108df57600080fd5b6000600781905550600090505b6001600060089054906101000a900467ffffffffffffffff160167ffffffffffffffff168110156109575760018160068110151561092657fe5b0160006101000a81549073ffffffffffffffffffffffffffffffffffffffff021916905580806001019150506108ec565b600191505090565b60c0604051908101604052806006905b600073ffffffffffffffffffffffffffffffffffffffff1681526020019060019003908161096f57905050905600a165627a7a72305820899a6dbcd95928a3242708770bbf117880f7c0247b76fe82e6d9f419c4037d8a0029",
  "source": "pragma solidity ^0.4.17;\r\n\r\n/**\r\n * @title Ethereum-Lottery\r\n * @dev Simple lottery smart contract to run on the Ethereum\r\n * chain. Designed to (hopefully) work well with a web3 front-end.\r\n * Source of randomness comes from ethereum block hashes.\r\n *\r\n */\r\n\r\ncontract Lottery {\r\n\r\n    event LotteryTicketPurchased(address indexed _purchaser, uint256 _ticketID);\r\n    event LotteryAmountPaid(address indexed _winner, uint64 _ticketID, uint256 _amount);\r\n\r\n    // variables that I may want to change in the future\r\n    uint64 public ticketPrice = 10 finney;\r\n    uint64 public ticketMax = 5;\r\n\r\n    // number of tickets is set to a hard 5, I hope I don't regret this\r\n    // inb4 price of ethereum goes up to 10000 and funds are locked\r\n    address[6] public ticketMapping;\r\n    uint256 public ticketsBought = 0;\r\n\r\n    // greater than to prevent locked funds\r\n    modifier allTicketsSold() {\r\n      require(ticketsBought>=ticketMax);\r\n      _;\r\n    }\r\n\r\n    function Lottery() public {\r\n      // help i do not know if an empty constructor works\r\n    }\r\n\r\n    function() payable public {\r\n      // for now, have ticket purchasing only through functions\r\n      // for sanity purposes\r\n      revert();\r\n    }\r\n\r\n    function buyTicket(uint16 _ticket) payable public returns (bool) {\r\n      // I'd prefer all tickets to just be 0.01 ether\r\n      require(msg.value == ticketPrice);\r\n      require(_ticket > 0 && _ticket < ticketMax+1);\r\n      require(ticketMapping[_ticket]==address(0));\r\n      require(ticketsBought < ticketMax);\r\n\r\n      address purchaser = msg.sender;\r\n      ticketsBought += 1;\r\n      ticketMapping[_ticket] = purchaser;\r\n      LotteryTicketPurchased(purchaser, _ticket);\r\n\r\n      // placing \"burden\" of sendReward() on last ticket buyer\r\n      // is okay, because the refund from destroying the arrays\r\n      // makes it cost the same as buying a regular ticket\r\n      if(ticketsBought>=ticketMax) {\r\n        sendReward();\r\n      }\r\n\r\n      return true;\r\n    }\r\n\r\n    // if a bad winner is chosen the first time, it's possible to just run\r\n    // sendReward() again. But can this cause an attack?\r\n    function sendReward() public allTicketsSold returns (address) {\r\n      uint64 winningNumber = lotteryPicker();\r\n      address winner = ticketMapping[winningNumber];\r\n\r\n      // prevent locked funds by sending to bad address\r\n      require(winner != address(0));\r\n      uint256 totalAmount = ticketMax*ticketPrice;\r\n      reset();\r\n      winner.transfer(totalAmount);\r\n      LotteryAmountPaid(winner, winningNumber, totalAmount);\r\n      return winner;\r\n    }\r\n\r\n    // @return a random number based off of current block information\r\n    function lotteryPicker() public allTicketsSold returns (uint64) {\r\n      return uint64(sha256(block.timestamp, block.number)) % ticketMax;\r\n    }\r\n\r\n    // resets everything to work\r\n    function reset() private allTicketsSold returns (bool) {\r\n      ticketsBought = 0;\r\n      for(uint x = 0; x < ticketMax+1; x++) {\r\n        delete ticketMapping[x];\r\n      }\r\n      return true;\r\n    }\r\n\r\n    // Yes, I know there's a built-in getting function for this,\r\n    // but I'd like to put it in anyways for readability for the\r\n    // web3 part :)\r\n\r\n    function getTicketsPurchased() public view returns(address[6]) {\r\n      return ticketMapping;\r\n    }\r\n\r\n    function getTicketsBought() public view returns (uint256) {\r\n        return ticketsBought;\r\n    }\r\n\r\n    function getTicketMax() public view returns (uint256) {\r\n        return ticketMax;\r\n    }\r\n}\r\n",
  "sourcePath": "C:\\Users\\Nagaganesh Jaladanki\\OneDrive\\Documents\\Coding\\Ethereum-Lottery\\contracts\\Lottery.sol",
  "compiler": {
    "name": "solc",
    "version": "0.4.18+commit.9cf6e910.Emscripten.clang"
  },
  "schemaVersion": "1.0.1",
  "updatedAt": "2018-01-07T04:23:15.683Z"
}