{
  "contractName": "Lottery",
  "abi": [
    {
      "constant": false,
      "inputs": [],
      "name": "sendReward",
      "outputs": [
        {
          "name": "",
          "type": "address"
        }
      ],
      "payable": false,
      "stateMutability": "nonpayable",
      "type": "function"
    },
    {
      "constant": false,
      "inputs": [
        {
          "name": "_ticket",
          "type": "uint16"
        }
      ],
      "name": "buyTicket",
      "outputs": [
        {
          "name": "",
          "type": "bool"
        }
      ],
      "payable": true,
      "stateMutability": "payable",
      "type": "function"
    },
    {
      "constant": true,
      "inputs": [
        {
          "name": "",
          "type": "uint256"
        }
      ],
      "name": "ticketMapping",
      "outputs": [
        {
          "name": "",
          "type": "address"
        }
      ],
      "payable": false,
      "stateMutability": "view",
      "type": "function"
    },
    {
      "constant": false,
      "inputs": [
        {
          "name": "_replacement",
          "type": "address"
        }
      ],
      "name": "changeOwner",
      "outputs": [
        {
          "name": "",
          "type": "bool"
        }
      ],
      "payable": false,
      "stateMutability": "nonpayable",
      "type": "function"
    },
    {
      "inputs": [],
      "payable": false,
      "stateMutability": "nonpayable",
      "type": "constructor"
    },
    {
      "payable": true,
      "stateMutability": "payable",
      "type": "fallback"
    },
    {
      "anonymous": false,
      "inputs": [
        {
          "indexed": true,
          "name": "_purchaser",
          "type": "address"
        },
        {
          "indexed": false,
          "name": "_ticketID",
          "type": "uint256"
        }
      ],
      "name": "LotteryTicketPurchased",
      "type": "event"
    },
    {
      "anonymous": false,
      "inputs": [
        {
          "indexed": true,
          "name": "_winner",
          "type": "address"
        },
        {
          "indexed": false,
          "name": "_amount",
          "type": "uint256"
        }
      ],
      "name": "LotteryAmountPaid",
      "type": "event"
    },
    {
      "anonymous": false,
      "inputs": [
        {
          "indexed": false,
          "name": "_old",
          "type": "address"
        },
        {
          "indexed": false,
          "name": "_new",
          "type": "address"
        }
      ],
      "name": "OwnershipTransferred",
      "type": "event"
    }
  ],
  "bytecode": "0x6060604052662386f26fc100006000806101000a81548167ffffffffffffffff021916908367ffffffffffffffff1602179055506064600060086101000a81548167ffffffffffffffff021916908367ffffffffffffffff1602179055506000606555341561006d57600080fd5b33606660006101000a81548173ffffffffffffffffffffffffffffffffffffffff021916908373ffffffffffffffffffffffffffffffffffffffff160217905550610915806100bd6000396000f300606060405260043610610062576000357c0100000000000000000000000000000000000000000000000000000000900463ffffffff1680631149a81a146100675780634eefee34146100bc5780637f702e80146100f0578063a6f9dae114610153575b600080fd5b341561007257600080fd5b61007a6101a4565b604051808273ffffffffffffffffffffffffffffffffffffffff1673ffffffffffffffffffffffffffffffffffffffff16815260200191505060405180910390f35b6100d6600480803561ffff169060200190919050506102f5565b604051808215151515815260200191505060405180910390f35b34156100fb57600080fd5b61011160048080359060200190919050506104e8565b604051808273ffffffffffffffffffffffffffffffffffffffff1673ffffffffffffffffffffffffffffffffffffffff16815260200191505060405180910390f35b341561015e57600080fd5b61018a600480803573ffffffffffffffffffffffffffffffffffffffff1690602001909190505061051d565b604051808215151515815260200191505060405180910390f35b60008060008060089054906101000a900467ffffffffffffffff1667ffffffffffffffff16606554101515156101d957600080fd5b6101e16106e1565b9150600073ffffffffffffffffffffffffffffffffffffffff168273ffffffffffffffffffffffffffffffffffffffff161415151561021f57600080fd5b6000809054906101000a900467ffffffffffffffff16600060089054906101000a900467ffffffffffffffff160267ffffffffffffffff169050610261610838565b508173ffffffffffffffffffffffffffffffffffffffff166108fc829081150290604051600060405180830381858888f1935050505015156102a257600080fd5b8173ffffffffffffffffffffffffffffffffffffffff167f0fe6c248f06847db4586f4241d17febf85b51aa2919bdcf716aefecb9a314588826040518082815260200191505060405180910390a2505090565b6000806000809054906101000a900467ffffffffffffffff1667ffffffffffffffff163414151561032557600080fd5b60008361ffff1611801561035c5750600060089054906101000a900467ffffffffffffffff1667ffffffffffffffff168361ffff16105b151561036757600080fd5b600060018461ffff1660648110151561037c57fe5b0160009054906101000a900473ffffffffffffffffffffffffffffffffffffffff1673ffffffffffffffffffffffffffffffffffffffff161415156103c057600080fd5b600060089054906101000a900467ffffffffffffffff1667ffffffffffffffff166065541015156103f057600080fd5b33905060016065600082825401925050819055508060018461ffff1660648110151561041857fe5b0160006101000a81548173ffffffffffffffffffffffffffffffffffffffff021916908373ffffffffffffffffffffffffffffffffffffffff1602179055508073ffffffffffffffffffffffffffffffffffffffff167f5436f9c7563d4b5be022d399b41f15519419cafca0f81c49d0cfbe78b925cbff84604051808261ffff16815260200191505060405180910390a2600060089054906101000a900467ffffffffffffffff1667ffffffffffffffff166065541015156104de576104dc6101a4565b505b6001915050919050565b6001816064811015156104f757fe5b016000915054906101000a900473ffffffffffffffffffffffffffffffffffffffff1681565b600080606660009054906101000a900473ffffffffffffffffffffffffffffffffffffffff1673ffffffffffffffffffffffffffffffffffffffff163373ffffffffffffffffffffffffffffffffffffffff1614151561057c57600080fd5b600073ffffffffffffffffffffffffffffffffffffffff168373ffffffffffffffffffffffffffffffffffffffff16141515156105b857600080fd5b606660009054906101000a900473ffffffffffffffffffffffffffffffffffffffff16905082606660006101000a81548173ffffffffffffffffffffffffffffffffffffffff021916908373ffffffffffffffffffffffffffffffffffffffff1602179055507f8be0079c531659141344cd1fd0a4f28419497f9722a3daafe3b4186f6b6457e081606660009054906101000a900473ffffffffffffffffffffffffffffffffffffffff16604051808373ffffffffffffffffffffffffffffffffffffffff1673ffffffffffffffffffffffffffffffffffffffff1681526020018273ffffffffffffffffffffffffffffffffffffffff1673ffffffffffffffffffffffffffffffffffffffff1681526020019250505060405180910390a16001915050919050565b60008060008060089054906101000a900467ffffffffffffffff1667ffffffffffffffff166065541015151561071657600080fd5b6003414342600060405160200152604051808473ffffffffffffffffffffffffffffffffffffffff1673ffffffffffffffffffffffffffffffffffffffff166c01000000000000000000000000028152601401838152602001828152602001935050505060206040518083038160008661646e5a03f1151561079757600080fd5b5050604051516c01000000000000000000000000026c0100000000000000000000000090049150600060089054906101000a900467ffffffffffffffff1667ffffffffffffffff168267ffffffffffffffff168115156107f357fe5b06905060018167ffffffffffffffff1660648110151561080f57fe5b0160009054906101000a900473ffffffffffffffffffffffffffffffffffffffff169250505090565b600080600060089054906101000a900467ffffffffffffffff1667ffffffffffffffff166065541015151561086c57600080fd5b6000606581905550600090505b600060089054906101000a900467ffffffffffffffff1667ffffffffffffffff168110156108e1576001816064811015156108b057fe5b0160006101000a81549073ffffffffffffffffffffffffffffffffffffffff02191690558080600101915050610879565b6001915050905600a165627a7a723058203aa11059257565182721d5f811a72686e84644e3fc27b12f845955c95ee9f2710029",
  "source": "pragma solidity ^0.4.17;\r\n\r\n/**\r\n * @title Simple Ethereum-based lottery\r\n * @dev Source of randomness comes from ethereum block hashes.\r\n * Created to work with a web3 front end.\r\n *\r\n */\r\n\r\ncontract Lottery {\r\n\r\n    event LotteryTicketPurchased(address indexed _purchaser, uint256 _ticketID);\r\n    event LotteryAmountPaid(address indexed _winner, uint256 _amount);\r\n    event OwnershipTransferred(address _old, address _new);\r\n\r\n\r\n    // variables that I may want to change in the future\r\n    uint64 ticketPrice = 10 finney;\r\n    uint64 ticketMax = 100;\r\n\r\n    // number of tickets is set to a hard 100, I hope I don't regret this\r\n    address[100] public ticketMapping;\r\n    uint256 ticketsBought = 0;\r\n\r\n    address owner;\r\n\r\n    modifier onlyOwner()  {\r\n      require(msg.sender==owner);\r\n      _;\r\n    }\r\n\r\n    // greater than to prevent locked funds\r\n    modifier allTicketsSold() {\r\n      require(ticketsBought>=ticketMax);\r\n      _;\r\n    }\r\n\r\n    function Lottery() public{\r\n      owner = msg.sender;\r\n    }\r\n\r\n    function changeOwner(address _replacement) onlyOwner public returns (bool) {\r\n      // adding this because I don't trust myself yet\r\n      require(_replacement != address(0));\r\n      address old = owner;\r\n      owner = _replacement;\r\n      OwnershipTransferred(old, owner);\r\n      return true;\r\n    }\r\n\r\n\r\n    function() payable public {\r\n      // for now, have ticket purchasing only through functions\r\n      // for sanity purposes\r\n      revert();\r\n    }\r\n\r\n    function buyTicket(uint16 _ticket) payable public returns (bool) {\r\n      // I'd prefer all tickets to just be 0.01 ether\r\n      // TODO: buy multiple tickets in one round\r\n      require(msg.value == ticketPrice);\r\n      require(_ticket > 0 && _ticket < ticketMax);\r\n      require(ticketMapping[_ticket]==0);\r\n      require(ticketsBought < ticketMax);\r\n\r\n      address purchaser = msg.sender;\r\n      ticketsBought += 1;\r\n      ticketMapping[_ticket] = purchaser;\r\n      LotteryTicketPurchased(purchaser, _ticket);\r\n\r\n      // not sure if it's okay to unload the gas cost on the poor fellow\r\n      // that bought the last one.\r\n      // TODO: check gas usage with and without function\r\n      if (ticketsBought >= ticketMax) {\r\n        sendReward();\r\n      }\r\n\r\n      return true;\r\n    }\r\n\r\n    // if a bad winner is chosen the first time, it's possible to just run\r\n    // sendReward() again. But can this cause an attack?\r\n    function sendReward() public allTicketsSold returns (address) {\r\n      address winner = lotteryPicker();\r\n      // prevent locked funds by sending to bad address\r\n      require(winner != address(0));\r\n      uint256 totalAmount = ticketMax*ticketPrice;\r\n      reset();\r\n      winner.transfer(totalAmount);\r\n      LotteryAmountPaid(winner, totalAmount);\r\n    }\r\n\r\n    function lotteryPicker() private allTicketsSold returns (address) {\r\n      var randomness = uint64(ripemd160(block.coinbase, block.number, block.timestamp));\r\n      uint64 winnerTicket = randomness % ticketMax;\r\n      return ticketMapping[winnerTicket];\r\n    }\r\n\r\n    function reset() private allTicketsSold returns (bool) {\r\n      ticketsBought = 0;\r\n      for(uint x = 0; x < ticketMax; x++) {\r\n        delete ticketMapping[x];\r\n      }\r\n      return true;\r\n    }\r\n\r\n\r\n}\r\n",
  "sourcePath": "C:\\Users\\Ganesh\\Documents\\smart_contracts\\lottery\\Ethereum-Lottery\\contracts\\Lottery.sol",
  "compiler": {
    "name": "solc",
    "version": "0.4.18+commit.9cf6e910.Emscripten.clang"
  },
  "schemaVersion": "1.0.1",
  "updatedAt": "2018-01-05T18:25:59.788Z"
}