{
  "contractName": "Lottery",
  "abi": [
    {
      "constant": false,
      "inputs": [],
      "name": "lotteryPicker",
      "outputs": [
        {
          "name": "",
          "type": "uint64"
        }
      ],
      "payable": false,
      "stateMutability": "nonpayable",
      "type": "function"
    },
    {
      "constant": false,
      "inputs": [],
      "name": "sendReward",
      "outputs": [
        {
          "name": "",
          "type": "address"
        }
      ],
      "payable": false,
      "stateMutability": "nonpayable",
      "type": "function"
    },
    {
      "constant": true,
      "inputs": [],
      "name": "ticketPrice",
      "outputs": [
        {
          "name": "",
          "type": "uint64"
        }
      ],
      "payable": false,
      "stateMutability": "view",
      "type": "function"
    },
    {
      "constant": false,
      "inputs": [
        {
          "name": "_ticket",
          "type": "uint16"
        }
      ],
      "name": "buyTicket",
      "outputs": [
        {
          "name": "",
          "type": "bool"
        }
      ],
      "payable": true,
      "stateMutability": "payable",
      "type": "function"
    },
    {
      "constant": true,
      "inputs": [],
      "name": "getTicketsPurchased",
      "outputs": [
        {
          "name": "",
          "type": "address[26]"
        }
      ],
      "payable": false,
      "stateMutability": "view",
      "type": "function"
    },
    {
      "constant": true,
      "inputs": [
        {
          "name": "",
          "type": "uint256"
        }
      ],
      "name": "ticketMapping",
      "outputs": [
        {
          "name": "",
          "type": "address"
        }
      ],
      "payable": false,
      "stateMutability": "view",
      "type": "function"
    },
    {
      "constant": true,
      "inputs": [],
      "name": "ticketsBought",
      "outputs": [
        {
          "name": "",
          "type": "uint256"
        }
      ],
      "payable": false,
      "stateMutability": "view",
      "type": "function"
    },
    {
      "constant": true,
      "inputs": [],
      "name": "ticketMax",
      "outputs": [
        {
          "name": "",
          "type": "uint64"
        }
      ],
      "payable": false,
      "stateMutability": "view",
      "type": "function"
    },
    {
      "inputs": [],
      "payable": false,
      "stateMutability": "nonpayable",
      "type": "constructor"
    },
    {
      "payable": true,
      "stateMutability": "payable",
      "type": "fallback"
    },
    {
      "anonymous": false,
      "inputs": [
        {
          "indexed": true,
          "name": "_purchaser",
          "type": "address"
        },
        {
          "indexed": false,
          "name": "_ticketID",
          "type": "uint256"
        }
      ],
      "name": "LotteryTicketPurchased",
      "type": "event"
    },
    {
      "anonymous": false,
      "inputs": [
        {
          "indexed": true,
          "name": "_winner",
          "type": "address"
        },
        {
          "indexed": false,
          "name": "_ticketID",
          "type": "uint64"
        },
        {
          "indexed": false,
          "name": "_amount",
          "type": "uint256"
        }
      ],
      "name": "LotteryAmountPaid",
      "type": "event"
    }
  ],
  "bytecode": "0x6060604052600080546611c37937e0800067ffffffffffffffff1990911617604060020a608060020a03191668190000000000000000178155601b55341561004657600080fd5b610664806100556000396000f30060606040526004361061008d5763ffffffff7c010000000000000000000000000000000000000000000000000000000060003504166304bccf7a81146100925780631149a81a146100c25780631209b1f6146100f15780634eefee34146101045780637cdcc30e146101275780637f702e8014610173578063af4a047a14610189578063e3075e4e146101ae575b600080fd5b341561009d57600080fd5b6100a56101c1565b60405167ffffffffffffffff909116815260200160405180910390f35b34156100cd57600080fd5b6100d5610264565b604051600160a060020a03909116815260200160405180910390f35b34156100fc57600080fd5b6100a5610381565b61011361ffff60043516610391565b604051901515815260200160405180910390f35b341561013257600080fd5b61013a6104f4565b604051808261034080838360005b83811015610160578082015183820152602001610148565b5050505090500191505060405180910390f35b341561017e57600080fd5b6100d560043561053d565b341561019457600080fd5b61019c61055a565b60405190815260200160405180910390f35b34156101b957600080fd5b6100a5610560565b60008054601b546801000000000000000090910467ffffffffffffffff169010156101eb57600080fd5b6000805468010000000000000000900467ffffffffffffffff16906002904290439060405160200152604051918252602080830191909152604091820191518083038160008661646e5a03f1151561024257600080fd5b5050604051805167ffffffffffffffff16905081151561025e57fe5b06905090565b60008054601b5482918291829168010000000000000000900467ffffffffffffffff1690101561029357600080fd5b61029b6101c1565b9250600167ffffffffffffffff8416601a81106102b457fe5b0154600160a060020a031691508115156102cd57600080fd5b5060005468010000000000000000810467ffffffffffffffff90811691811691909102166102f961057c565b50600160a060020a03821681156108fc0282604051600060405180830381858888f19350505050151561032b57600080fd5b81600160a060020a03167f88e10e2c5fc124e16534a2656bbb0d35e634b6b45da693604ba908af778b15c2848360405167ffffffffffffffff909216825260208201526040908101905180910390a25092915050565b60005467ffffffffffffffff1681565b60008054819067ffffffffffffffff1634146103ac57600080fd5b60008361ffff161180156103e15750600054600167ffffffffffffffff680100000000000000009092048216011661ffff8416105b15156103ec57600080fd5b6000600161ffff8516601a81106103ff57fe5b0154600160a060020a03161461041457600080fd5b600054601b546801000000000000000090910467ffffffffffffffff16901061043c57600080fd5b50601b805460019081019091553390819061ffff8516601a811061045c57fe5b01805473ffffffffffffffffffffffffffffffffffffffff1916600160a060020a0392831617905581167f5436f9c7563d4b5be022d399b41f15519419cafca0f81c49d0cfbe78b925cbff8460405161ffff909116815260200160405180910390a2600054601b546801000000000000000090910467ffffffffffffffff1690106104eb576104e9610264565b505b50600192915050565b6104fc61060f565b6001601a6103406040519081016040529190610340830182845b8154600160a060020a03168152600190910190602001808311610516575050505050905090565b600181601a811061054a57fe5b0154600160a060020a0316905081565b601b5481565b60005468010000000000000000900467ffffffffffffffff1681565b60008054601b54829168010000000000000000900467ffffffffffffffff169010156105a757600080fd5b506000601b8190555b600054600167ffffffffffffffff680100000000000000009092048216011681101561060757600181601a81106105e357fe5b01805473ffffffffffffffffffffffffffffffffffffffff191690556001016105b0565b600191505090565b610340604051908101604052601a815b60008152600019909101906020018161061f57905050905600a165627a7a723058208af8ed8119415ef8bfcb5615b52678fd07b27393e0e0fcaaa6161ae02b047e450029",
  "source": "pragma solidity ^0.4.17;\r\n\r\n/**\r\n * @title Ethereum-Lottery\r\n * @dev Simple lottery smart contract to run on the Ethereum\r\n * chain. Designed to (hopefully) work well with a web3 front-end.\r\n * Source of randomness comes from ethereum block hashes.\r\n *\r\n */\r\n\r\ncontract Lottery {\r\n\r\n    event LotteryTicketPurchased(address indexed _purchaser, uint256 _ticketID);\r\n    event LotteryAmountPaid(address indexed _winner, uint64 _ticketID, uint256 _amount);\r\n\r\n    // variables that I may want to change in the future\r\n    uint64 public ticketPrice = 5 finney;\r\n    uint64 public ticketMax = 25;\r\n\r\n    // number of tickets is set to a hard 5, I hope I don't regret this\r\n    // inb4 price of ethereum goes up to 10000 and funds are locked\r\n    address[26] public ticketMapping;\r\n    uint256 public ticketsBought = 0;\r\n\r\n    // greater than to prevent locked funds\r\n    modifier allTicketsSold() {\r\n      require(ticketsBought>=ticketMax);\r\n      _;\r\n    }\r\n\r\n    function Lottery() public {\r\n      // help i do not know if an empty constructor works\r\n    }\r\n\r\n    function() payable public {\r\n      // for now, have ticket purchasing only through functions\r\n      // for sanity purposes\r\n      revert();\r\n    }\r\n\r\n    function buyTicket(uint16 _ticket) payable public returns (bool) {\r\n      // I'd prefer all tickets to just be 0.01 ether\r\n      require(msg.value == ticketPrice);\r\n      require(_ticket > 0 && _ticket < ticketMax+1);\r\n      require(ticketMapping[_ticket]==address(0));\r\n      require(ticketsBought < ticketMax);\r\n\r\n      address purchaser = msg.sender;\r\n      ticketsBought += 1;\r\n      ticketMapping[_ticket] = purchaser;\r\n      LotteryTicketPurchased(purchaser, _ticket);\r\n\r\n      // placing \"burden\" of sendReward() on last ticket buyer\r\n      // is okay, because the refund from destroying the arrays\r\n      // makes it cost the same as buying a regular ticket\r\n      if(ticketsBought>=ticketMax) {\r\n        sendReward();\r\n      }\r\n\r\n      return true;\r\n    }\r\n\r\n    // if a bad winner is chosen the first time, it's possible to just run\r\n    // sendReward() again. But can this cause an attack?\r\n    function sendReward() public allTicketsSold returns (address) {\r\n      uint64 winningNumber = lotteryPicker();\r\n      address winner = ticketMapping[winningNumber];\r\n\r\n      // prevent locked funds by sending to bad address\r\n      require(winner != address(0));\r\n      uint256 totalAmount = ticketMax*ticketPrice;\r\n      reset();\r\n      winner.transfer(totalAmount);\r\n      LotteryAmountPaid(winner, winningNumber, totalAmount);\r\n      return winner;\r\n    }\r\n\r\n    // @return a random number based off of current block information\r\n    function lotteryPicker() public allTicketsSold returns (uint64) {\r\n      return uint64(sha256(block.timestamp, block.number)) % ticketMax;\r\n    }\r\n\r\n    // resets everything to work again\r\n    function reset() private allTicketsSold returns (bool) {\r\n      ticketsBought = 0;\r\n      for(uint x = 0; x < ticketMax+1; x++) {\r\n        delete ticketMapping[x];\r\n      }\r\n      return true;\r\n    }\r\n\r\n    // @dev returns the entire array of tickets purchased\r\n    // while I understand there's a getter function for the\r\n    // array, I'd prefer for there to be a way to get it\r\n    // all at once, since the getter is by element only\r\n    function getTicketsPurchased() public view returns(address[26]) {\r\n      return ticketMapping;\r\n    }\r\n}\r\n",
  "sourcePath": "C:\\Users\\Nagaganesh Jaladanki\\OneDrive\\Documents\\Coding\\Old Projects\\Etherball\\contracts\\Lottery.sol",
  "compiler": {
    "name": "solc",
    "version": "0.4.18+commit.9cf6e910.Emscripten.clang"
  },
  "schemaVersion": "1.0.1",
  "updatedAt": "2018-02-16T00:19:15.124Z"
}